{
  "contractName": "DappToken",
  "abi": [
    {
      "constant": true,
      "inputs": [],
      "name": "totalSupply",
      "outputs": [
        {
          "name": "",
          "type": "uint256"
        }
      ],
      "payable": false,
      "stateMutability": "view",
      "type": "function"
    },
    {
      "inputs": [],
      "payable": false,
      "stateMutability": "nonpayable",
      "type": "constructor"
    }
  ],
  "bytecode": "0x608060405234801561001057600080fd5b50620f4240600081905550609e806100296000396000f300608060405260043610603f576000357c0100000000000000000000000000000000000000000000000000000000900463ffffffff16806318160ddd146044575b600080fd5b348015604f57600080fd5b506056606c565b6040518082815260200191505060405180910390f35b600054815600a165627a7a723058200540fe8ca1d76eb1f56c85ad04e51078904ed2c749359f7ed8cda9771fc54f610029",
  "source": "pragma solidity ^0.4.2;\r\n\r\ncontract DappToken {\r\n\t//constractor  \r\n\t//set the total number token\r\n\t//read the total number oftoken\r\n\tuint256 public totalSupply;\r\n\t\r\n\tfunction DappToken() public {\r\n\t\ttotalSupply = 1000000;\r\n\t}\r\n\t\r\n}\r\n",
  "sourcePath": "C:\\Users\\Shad\\token_sale\\contracts\\DappToken.sol",
  "compiler": {
    "name": "solc",
    "version": "0.4.24+commit.e67f0147.Emscripten.clang"
  },
  "schemaVersion": "2.0.1",
  "updatedAt": "2018-11-19T01:17:56.519Z"
}